:020000040000FA
:020000002728AF
:100008007E1480314E01961E0A280B2813288C1E58
:100018000E280F28132881314321803125280B1FF2
:10002800162817282528191C1A281B2825280F1CCC
:100038001E281F2825287A088A0079080A00803196
:1000480025287E1009002828813194218031F60066
:10005800813195218031F700813196218031F80076
:10006800FB017E10400138288031612080318B17D8
:100078000B176030F2000130F30081318B218031A1
:10008800430190160030F200F3008031D620803111
:100098009E30F2000030F300813185218031033039
:1000A8004001A3000830A2007730890B5928A20B21
:1000B8005928A30B59285328272881317D218031BD
:1000C8008031802080318031BB20803181316B21AB
:1000D8008031813113218031813134218031813166
:1000E8002421803181317521803181315221803143
:1000F8008031EC208031080005307D01C5000430D6
:10010800C60015307E01950016309100403043013D
:100118008F00253090008D014E0119140030F20037
:100128000130F30081318B21803140019216430167
:100138009012080078080319A228A328B528770880
:10014800F1007608F0000630F136F00C890BA8288B
:1001580070087F39460195000130F6070030F73DF9
:10016800B8287B08460195004E018C120800400112
:100178009801303092007E01B801B901BA01BB0183
:100188003F30BC0005307D01C5000530BD0016308C
:100198007E019100013092000230900004307D0110
:1001A800C60008007308F5007208F400F536F40C70
:1001B800F536F40C74084601950072080339F4000A
:1001C8000530F435FF3E031DE5287435940008001A
:1001D80046304B019F007C309D009C014E018C12E3
:1001E80096169730F2000130F30081318521803175
:1001F80080304B019E0008004E010F1C0429052980
:10020800122979087A0403190A290B2910297A086E
:100218008A0079080A0081314E010F1008007C011C
:10022800910111309200153093009401950102302C
:1002380096000830970098019901803090000800D6
:100248000E307C019B0002309C009D019E019F01A5
:100258000230A000A101A201A30182309A00080087
:1002680001304B019200A03093008E018D018C016A
:1002780091010E30900056308F00921708004E0101
:100288008C1240012008210403194B294C295129BB
:1002980021088A0020080A00813108000130450140
:1002A80090008F0191017C308D008C014E019010DF
:1002B800F03045018E000800F80143010C08F000F9
:1002C8007008FB004B019C014E010F1008006030C4
:1002D80051018D008F019101063093009001920128
:1002E80008008030460196003E309500403094006A
:1002F80008004F0196019701980199019A019B0105
:10030800080073084001A1007208A00008007308E3
:10031800FA007208F900080025344034003401342A
:08032800013400340134080027
:020000040001F9
:0A000E008C3FFE379F3FFF1FFF3FAE
:00000001FF
